{
  "_format": "hh-sol-artifact-1",
  "contractName": "BTCBettingPolygon",
  "sourceName": "contracts/BTCBettingPolygon.sol",
  "abi": [
    {
      "inputs": [
        {
          "internalType": "address",
          "name": "_priceFeed",
          "type": "address"
        },
        {
          "internalType": "uint256",
          "name": "_initialBettingPeriod",
          "type": "uint256"
        },
        {
          "internalType": "uint256",
          "name": "_initialResultDelay",
          "type": "uint256"
        }
      ],
      "stateMutability": "nonpayable",
      "type": "constructor"
    },
    {
      "anonymous": false,
      "inputs": [
        {
          "indexed": true,
          "internalType": "uint256",
          "name": "roundNumber",
          "type": "uint256"
        },
        {
          "indexed": true,
          "internalType": "address",
          "name": "player",
          "type": "address"
        },
        {
          "indexed": false,
          "internalType": "uint256",
          "name": "amount",
          "type": "uint256"
        },
        {
          "indexed": false,
          "internalType": "uint256",
          "name": "predictedPrice",
          "type": "uint256"
        }
      ],
      "name": "BetPlaced",
      "type": "event"
    },
    {
      "anonymous": false,
      "inputs": [
        {
          "indexed": false,
          "internalType": "uint256",
          "name": "oldPeriod",
          "type": "uint256"
        },
        {
          "indexed": false,
          "internalType": "uint256",
          "name": "newPeriod",
          "type": "uint256"
        }
      ],
      "name": "BettingPeriodUpdated",
      "type": "event"
    },
    {
      "anonymous": false,
      "inputs": [
        {
          "indexed": true,
          "internalType": "uint256",
          "name": "roundNumber",
          "type": "uint256"
        },
        {
          "indexed": false,
          "internalType": "uint256",
          "name": "startTime",
          "type": "uint256"
        },
        {
          "indexed": false,
          "internalType": "uint256",
          "name": "endTime",
          "type": "uint256"
        }
      ],
      "name": "NewRoundStarted",
      "type": "event"
    },
    {
      "anonymous": false,
      "inputs": [
        {
          "indexed": false,
          "internalType": "uint256",
          "name": "oldDelay",
          "type": "uint256"
        },
        {
          "indexed": false,
          "internalType": "uint256",
          "name": "newDelay",
          "type": "uint256"
        }
      ],
      "name": "ResultDelayUpdated",
      "type": "event"
    },
    {
      "anonymous": false,
      "inputs": [
        {
          "indexed": true,
          "internalType": "uint256",
          "name": "roundNumber",
          "type": "uint256"
        },
        {
          "indexed": false,
          "internalType": "uint256",
          "name": "actualPrice",
          "type": "uint256"
        },
        {
          "indexed": false,
          "internalType": "address[]",
          "name": "winners",
          "type": "address[]"
        },
        {
          "indexed": false,
          "internalType": "uint256[]",
          "name": "winningAmounts",
          "type": "uint256[]"
        },
        {
          "indexed": false,
          "internalType": "uint256",
          "name": "totalPrizePool",
          "type": "uint256"
        }
      ],
      "name": "RoundResolved",
      "type": "event"
    },
    {
      "inputs": [],
      "name": "MIN_BETTING_PERIOD",
      "outputs": [
        {
          "internalType": "uint256",
          "name": "",
          "type": "uint256"
        }
      ],
      "stateMutability": "view",
      "type": "function"
    },
    {
      "inputs": [],
      "name": "MIN_RESULT_DELAY",
      "outputs": [
        {
          "internalType": "uint256",
          "name": "",
          "type": "uint256"
        }
      ],
      "stateMutability": "view",
      "type": "function"
    },
    {
      "inputs": [],
      "name": "bettingPeriod",
      "outputs": [
        {
          "internalType": "uint256",
          "name": "",
          "type": "uint256"
        }
      ],
      "stateMutability": "view",
      "type": "function"
    },
    {
      "inputs": [
        {
          "internalType": "uint256",
          "name": "betAmount",
          "type": "uint256"
        }
      ],
      "name": "calculatePotentialWinnings",
      "outputs": [
        {
          "internalType": "uint256",
          "name": "minWinning",
          "type": "uint256"
        },
        {
          "internalType": "uint256",
          "name": "maxWinning",
          "type": "uint256"
        },
        {
          "internalType": "uint256",
          "name": "currentPool",
          "type": "uint256"
        }
      ],
      "stateMutability": "view",
      "type": "function"
    },
    {
      "inputs": [],
      "name": "currentRoundStart",
      "outputs": [
        {
          "internalType": "uint256",
          "name": "",
          "type": "uint256"
        }
      ],
      "stateMutability": "view",
      "type": "function"
    },
    {
      "inputs": [],
      "name": "determineWinnersAndStartNewRound",
      "outputs": [],
      "stateMutability": "nonpayable",
      "type": "function"
    },
    {
      "inputs": [],
      "name": "feePercentage",
      "outputs": [
        {
          "internalType": "uint256",
          "name": "",
          "type": "uint256"
        }
      ],
      "stateMutability": "view",
      "type": "function"
    },
    {
      "inputs": [],
      "name": "getBTCPrice",
      "outputs": [
        {
          "internalType": "uint256",
          "name": "",
          "type": "uint256"
        }
      ],
      "stateMutability": "view",
      "type": "function"
    },
    {
      "inputs": [],
      "name": "getCurrentRoundBets",
      "outputs": [
        {
          "components": [
            {
              "internalType": "address",
              "name": "player",
              "type": "address"
            },
            {
              "internalType": "uint256",
              "name": "amount",
              "type": "uint256"
            },
            {
              "internalType": "uint256",
              "name": "predictedPrice",
              "type": "uint256"
            },
            {
              "internalType": "uint256",
              "name": "round",
              "type": "uint256"
            }
          ],
          "internalType": "struct BTCBettingPolygon.Bet[]",
          "name": "",
          "type": "tuple[]"
        }
      ],
      "stateMutability": "view",
      "type": "function"
    },
    {
      "inputs": [],
      "name": "getCurrentRoundEndTime",
      "outputs": [
        {
          "internalType": "uint256",
          "name": "",
          "type": "uint256"
        }
      ],
      "stateMutability": "view",
      "type": "function"
    },
    {
      "inputs": [],
      "name": "getCurrentRoundInfo",
      "outputs": [
        {
          "internalType": "uint256",
          "name": "roundNum",
          "type": "uint256"
        },
        {
          "internalType": "uint256",
          "name": "startTime",
          "type": "uint256"
        },
        {
          "internalType": "uint256",
          "name": "endTime",
          "type": "uint256"
        },
        {
          "internalType": "uint256",
          "name": "resultTime",
          "type": "uint256"
        },
        {
          "internalType": "uint256",
          "name": "totalBets",
          "type": "uint256"
        },
        {
          "internalType": "uint256",
          "name": "totalPrizePool",
          "type": "uint256"
        },
        {
          "internalType": "bool",
          "name": "isAIPredictionSet",
          "type": "bool"
        }
      ],
      "stateMutability": "view",
      "type": "function"
    },
    {
      "inputs": [],
      "name": "getLastPriceUpdateTime",
      "outputs": [
        {
          "internalType": "uint256",
          "name": "",
          "type": "uint256"
        }
      ],
      "stateMutability": "view",
      "type": "function"
    },
    {
      "inputs": [
        {
          "internalType": "address",
          "name": "player",
          "type": "address"
        }
      ],
      "name": "getPlayerCurrentRoundStats",
      "outputs": [
        {
          "internalType": "uint256",
          "name": "totalBets",
          "type": "uint256"
        },
        {
          "internalType": "uint256",
          "name": "totalAmount",
          "type": "uint256"
        },
        {
          "internalType": "uint256[]",
          "name": "prices",
          "type": "uint256[]"
        }
      ],
      "stateMutability": "view",
      "type": "function"
    },
    {
      "inputs": [],
      "name": "getResultTime",
      "outputs": [
        {
          "internalType": "uint256",
          "name": "",
          "type": "uint256"
        }
      ],
      "stateMutability": "view",
      "type": "function"
    },
    {
      "inputs": [],
      "name": "getRoundStatus",
      "outputs": [
        {
          "internalType": "string",
          "name": "",
          "type": "string"
        }
      ],
      "stateMutability": "view",
      "type": "function"
    },
    {
      "inputs": [],
      "name": "getTimeUntilNextPhase",
      "outputs": [
        {
          "internalType": "uint256",
          "name": "",
          "type": "uint256"
        }
      ],
      "stateMutability": "view",
      "type": "function"
    },
    {
      "inputs": [],
      "name": "owner",
      "outputs": [
        {
          "internalType": "address",
          "name": "",
          "type": "address"
        }
      ],
      "stateMutability": "view",
      "type": "function"
    },
    {
      "inputs": [
        {
          "internalType": "uint256",
          "name": "_predictedPrice",
          "type": "uint256"
        }
      ],
      "name": "placeBet",
      "outputs": [],
      "stateMutability": "payable",
      "type": "function"
    },
    {
      "inputs": [],
      "name": "resetCurrentRound",
      "outputs": [],
      "stateMutability": "nonpayable",
      "type": "function"
    },
    {
      "inputs": [],
      "name": "resultDelay",
      "outputs": [
        {
          "internalType": "uint256",
          "name": "",
          "type": "uint256"
        }
      ],
      "stateMutability": "view",
      "type": "function"
    },
    {
      "inputs": [
        {
          "internalType": "uint256",
          "name": "",
          "type": "uint256"
        }
      ],
      "name": "roundAIPredictionSet",
      "outputs": [
        {
          "internalType": "bool",
          "name": "",
          "type": "bool"
        }
      ],
      "stateMutability": "view",
      "type": "function"
    },
    {
      "inputs": [
        {
          "internalType": "uint256",
          "name": "",
          "type": "uint256"
        }
      ],
      "name": "roundAIPredictions",
      "outputs": [
        {
          "internalType": "uint256",
          "name": "",
          "type": "uint256"
        }
      ],
      "stateMutability": "view",
      "type": "function"
    },
    {
      "inputs": [
        {
          "internalType": "uint256",
          "name": "",
          "type": "uint256"
        },
        {
          "internalType": "uint256",
          "name": "",
          "type": "uint256"
        }
      ],
      "name": "roundBets",
      "outputs": [
        {
          "internalType": "address",
          "name": "player",
          "type": "address"
        },
        {
          "internalType": "uint256",
          "name": "amount",
          "type": "uint256"
        },
        {
          "internalType": "uint256",
          "name": "predictedPrice",
          "type": "uint256"
        },
        {
          "internalType": "uint256",
          "name": "round",
          "type": "uint256"
        }
      ],
      "stateMutability": "view",
      "type": "function"
    },
    {
      "inputs": [],
      "name": "roundNumber",
      "outputs": [
        {
          "internalType": "uint256",
          "name": "",
          "type": "uint256"
        }
      ],
      "stateMutability": "view",
      "type": "function"
    },
    {
      "inputs": [
        {
          "internalType": "uint256",
          "name": "_aiPrediction",
          "type": "uint256"
        }
      ],
      "name": "setAIPrediction",
      "outputs": [],
      "stateMutability": "nonpayable",
      "type": "function"
    },
    {
      "inputs": [
        {
          "internalType": "uint256",
          "name": "_newBettingPeriod",
          "type": "uint256"
        }
      ],
      "name": "setBettingPeriod",
      "outputs": [],
      "stateMutability": "nonpayable",
      "type": "function"
    },
    {
      "inputs": [
        {
          "internalType": "uint256",
          "name": "_newResultDelay",
          "type": "uint256"
        }
      ],
      "name": "setResultDelay",
      "outputs": [],
      "stateMutability": "nonpayable",
      "type": "function"
    }
  ],
  "bytecode": "0x608060405262013560600155611c2060025560056004553480156200002357600080fd5b50604051620024013803806200240183398101604081905262000046916200017e565b60008054336001600160a01b031991821617909155600980549091166001600160a01b03851617905561012c821015620000c75760405162461bcd60e51b815260206004820152601860248201527f42657474696e6720706572696f6420746f6f2073686f7274000000000000000060448201526064015b60405180910390fd5b603c8110156200011a5760405162461bcd60e51b815260206004820152601660248201527f526573756c742064656c617920746f6f2073686f7274000000000000000000006044820152606401620000be565b6001828155600282905542600381905560058290557fb0b0c60f0267584d50a65485b5eff6babad43c5727703515fde33bb545b19114906200015d8582620001c3565b6040805192835260208301919091520160405180910390a2505050620001eb565b6000806000606084860312156200019457600080fd5b83516001600160a01b0381168114620001ac57600080fd5b602085015160409095015190969495509392505050565b80820180821115620001e557634e487b7160e01b600052601160045260246000fd5b92915050565b61220680620001fb6000396000f3fe60806040526004361061019b5760003560e01c8063747dff42116100ec5780639d1d1c3a1161008a578063db95f8ae11610064578063db95f8ae146104c3578063dd22db80146104fe578063dd2a075114610513578063f489742e1461052857600080fd5b80639d1d1c3a1461045c578063a001ecdd1461048b578063c48fa21b146104a157600080fd5b806386b945b0116100c657806386b945b0146103d85780638aaaa197146103fa5780638da5cb5b1461040f5780639c960c211461044757600080fd5b8063747dff421461032257806375463ba11461036e57806381b792671461038e57600080fd5b80631be79cd5116101595780633707481b116101335780633707481b146102b45780634e2786fb146102e157806359e2275a146102f75780636100978e1461030c57600080fd5b80631be79cd514610268578063222d7e34146102885780632263b2d21461029e57600080fd5b80623312ce146101a057806303f12eaa146101c857806310df2004146101de57806310fe7c48146101f557806315d30b751461020857806318797f7614610228575b600080fd5b3480156101ac57600080fd5b506101b561053d565b6040519081526020015b60405180910390f35b3480156101d457600080fd5b506101b560015481565b3480156101ea57600080fd5b506101f3610561565b005b6101f3610203366004611ded565b610ced565b34801561021457600080fd5b506101f3610223366004611ded565b610e96565b34801561023457600080fd5b50610258610243366004611ded565b60086020526000908152604090205460ff1681565b60405190151581526020016101bf565b34801561027457600080fd5b506101f3610283366004611ded565b61103a565b34801561029457600080fd5b506101b560035481565b3480156102aa57600080fd5b506101b561012c81565b3480156102c057600080fd5b506101b56102cf366004611ded565b60076020526000908152604090205481565b3480156102ed57600080fd5b506101b560055481565b34801561030357600080fd5b506101b56111d3565b34801561031857600080fd5b506101b560025481565b34801561032e57600080fd5b50610337611267565b604080519788526020880196909652948601939093526060850191909152608084015260a0830152151560c082015260e0016101bf565b34801561037a57600080fd5b506101f3610389366004611ded565b611334565b34801561039a57600080fd5b506103ae6103a9366004611e06565b611485565b604080516001600160a01b03909516855260208501939093529183015260608201526080016101bf565b3480156103e457600080fd5b506103ed6114d5565b6040516101bf9190611e4c565b34801561040657600080fd5b506101b56115ca565b34801561041b57600080fd5b5060005461042f906001600160a01b031681565b6040516001600160a01b0390911681526020016101bf565b34801561045357600080fd5b506101f36115dc565b34801561046857600080fd5b5061047c610477366004611e7f565b611723565b6040516101bf93929190611eea565b34801561049757600080fd5b506101b560045481565b3480156104ad57600080fd5b506104b6611933565b6040516101bf9190611f12565b3480156104cf57600080fd5b506104e36104de366004611ded565b6119d0565b604080519384526020840192909252908201526060016101bf565b34801561050a57600080fd5b506101b5611b6b565b34801561051f57600080fd5b506101b5603c81565b34801561053457600080fd5b506101b5611d30565b60006002546001546003546105529190611f95565b61055c9190611f95565b905090565b6000546001600160a01b031633146105945760405162461bcd60e51b815260040161058b90611fa8565b60405180910390fd5b6002546001546003546105a79190611f95565b6105b19190611f95565b4210156105ec5760405162461bcd60e51b8152602060048201526009602482015268546f6f206561726c7960b81b604482015260640161058b565b60055460008181526006602052604090205461063b5760405162461bcd60e51b815260206004820152600e60248201526d139bc818995d1cc81c1b1858d95960921b604482015260640161058b565b60008181526008602052604090205460ff166106915760405162461bcd60e51b81526020600482015260156024820152741052481c1c99591a58dd1a5bdb881b9bdd081cd95d605a1b604482015260640161058b565b600061069b611b6b565b6000838152600660205260408120549192506000199167ffffffffffffffff8111156106c9576106c9611fcb565b6040519080825280602002602001820160405280156106f2578160200160208202803683370190505b506000858152600660205260408120549192509067ffffffffffffffff81111561071e5761071e611fcb565b604051908082528060200260200182016040528015610747578160200160208202803683370190505b5090506000806000805b6000898152600660205260409020548110156107b857600089815260066020526040902080548290811061078757610787611fe1565b906000526020600020906004020160010154836107a49190611f95565b9250806107b081611ff7565b915050610751565b506000888152600760205260408120546107d29089611db4565b905060005b60008a81526006602052604090205481101561084b5760008a8152600660205260408120805461082a91908490811061081257610812611fe1565b9060005260206000209060040201600201548b611db4565b905088811015610838578098505b508061084381611ff7565b9150506107d7565b5080871015610ac95760005b60008a8152600660205260409020548110156109b75760008a8152600660205260408120805461089291908490811061081257610812611fe1565b90508881036109a45760008b81526006602052604090208054839081106108bb576108bb611fe1565b600091825260209091206004909102015488516001600160a01b03909116908990889081106108ec576108ec611fe1565b6001600160a01b0390921660209283029190910182015260008c815260069091526040902080548390811061092357610923611fe1565b90600052602060002090600402016001015487878151811061094757610947611fe1565b602002602001018181525050600660008c8152602001908152602001600020828154811061097757610977611fe1565b906000526020600020906004020160010154846109949190611f95565b9350856109a081611ff7565b9650505b50806109af81611ff7565b915050610857565b506000606460045460646109cb9190612010565b6109d59086612023565b6109df9190612050565b905060005b85811015610a8757600084888381518110610a0157610a01611fe1565b602002602001015184610a149190612023565b610a1e9190612050565b9050888281518110610a3257610a32611fe1565b60200260200101516001600160a01b03166108fc829081150290604051600060405180830381858888f19350505050158015610a72573d6000803e3d6000fd5b50508080610a7f90611ff7565b9150506109e4565b50600080546040516001600160a01b03909116914780156108fc02929091818181858888f19350505050158015610ac2573d6000803e3d6000fd5b5050610b04565b600080546040516001600160a01b039091169185156108fc02918691818181858888f19350505050158015610b02573d6000803e3d6000fd5b505b60008467ffffffffffffffff811115610b1f57610b1f611fcb565b604051908082528060200260200182016040528015610b48578160200160208202803683370190505b50905060008567ffffffffffffffff811115610b6657610b66611fcb565b604051908082528060200260200182016040528015610b8f578160200160208202803683370190505b50905060005b86811015610c3257888181518110610baf57610baf611fe1565b6020026020010151838281518110610bc957610bc9611fe1565b60200260200101906001600160a01b031690816001600160a01b031681525050878181518110610bfb57610bfb611fe1565b6020026020010151828281518110610c1557610c15611fe1565b602090810291909101015280610c2a81611ff7565b915050610b95565b508a7fb99647f8f256fcf37317843d8cfe2bc80176e42ef43dede63a7cd9cfffc7cfe68b848489604051610c699493929190612064565b60405180910390a2610c79611ddf565b60035560058054906000610c8c83611ff7565b91905055506005547fb0b0c60f0267584d50a65485b5eff6babad43c5727703515fde33bb545b19114600354600154600354610cc89190611f95565b6040805192835260208301919091520160405180910390a25050505050505050505050565b600354421015610d335760405162461bcd60e51b8152602060048201526011602482015270149bdd5b99081b9bdd081cdd185c9d1959607a1b604482015260640161058b565b600154600354610d439190611f95565b4210610d825760405162461bcd60e51b815260206004820152600e60248201526d10995d1d1a5b99c818db1bdcd95960921b604482015260640161058b565b670de0b6b3a7640000341015610dd35760405162461bcd60e51b81526020600482015260166024820152754d696e696d756d206265742069732031204d4154494360501b604482015260640161058b565b600580546000818152600660209081526040808320815160808101835233808252348286018181528386018b815260608501998a52855460018082018855968a52988890209451600490990290940180546001600160a01b0319166001600160a01b0390991698909817885551938701939093559051600286015594516003909401939093559354845192835290820185905291927f1b8a9031cb9351278d70a994f81536e9e08c91162e64f92b2fe4766fb7a891b4910160405180910390a350565b6000546001600160a01b03163314610ec05760405162461bcd60e51b815260040161058b90611fa8565b61012c811015610f055760405162461bcd60e51b815260206004820152601060248201526f14195c9a5bd9081d1bdbc81cda1bdc9d60821b604482015260640161058b565b6000610f0f6114d5565b6040516f15d05255125391d7d513d7d4d510549560821b60208201529091506030016040516020818303038152906040528051906020012081604051602001610f5891906120d6565b604051602081830303815290604052805190602001201480610fd75750604051732922a0a22cafa327a92fa922a9a7a62aaa24a7a760611b60208201526034016040516020818303038152906040528051906020012081604051602001610fbf91906120d6565b60405160208183030381529060405280519060200120145b610ff35760405162461bcd60e51b815260040161058b906120f2565b600180549083905560408051828152602081018590527f7579170795423bf41718e3b63add0930ca0da930f2097ecccf3385bc37927c0091015b60405180910390a1505050565b6000546001600160a01b031633146110645760405162461bcd60e51b815260040161058b90611fa8565b603c8110156110a75760405162461bcd60e51b815260206004820152600f60248201526e11195b185e481d1bdbc81cda1bdc9d608a1b604482015260640161058b565b60006110b16114d5565b6040516f15d05255125391d7d513d7d4d510549560821b602082015290915060300160405160208183030381529060405280519060200120816040516020016110fa91906120d6565b6040516020818303038152906040528051906020012014806111795750604051732922a0a22cafa327a92fa922a9a7a62aaa24a7a760611b6020820152603401604051602081830303815290604052805190602001208160405160200161116191906120d6565b60405160208183030381529060405280519060200120145b6111955760405162461bcd60e51b815260040161058b906120f2565b600280549083905560408051828152602081018590527f73ae29d752e307bb875642e4806f589b96a21942e4125e3ae98ed7d81a1ce227910161102d565b60006003544210156111ed574260035461055c9190612010565b6001546003546111fd9190611f95565b42101561121f57426001546003546112159190611f95565b61055c9190612010565b6002546001546003546112329190611f95565b61123c9190611f95565b42101561126157426002546001546003546112579190611f95565b6112159190611f95565b50600090565b60055460035460008080808061127b6115ca565b945061128561053d565b6005546000908152600660205260408120549195509093509150815b60055460009081526006602052604090205481101561130e5760055460009081526006602052604090208054829081106112dd576112dd611fe1565b906000526020600020906004020160010154836112fa9190611f95565b92508061130681611ff7565b9150506112a1565b505060055460009081526008602052604090205495969495939492939192909160ff1690565b6000546001600160a01b0316331461135e5760405162461bcd60e51b815260040161058b90611fa8565b6003544210156113a45760405162461bcd60e51b8152602060048201526011602482015270149bdd5b99081b9bdd081cdd185c9d1959607a1b604482015260640161058b565b6001546003546113b49190611f95565b42106113f35760405162461bcd60e51b815260206004820152600e60248201526d10995d1d1a5b99c818db1bdcd95960921b604482015260640161058b565b60055460009081526008602052604090205460ff16156114555760405162461bcd60e51b815260206004820152601960248201527f41492070726564696374696f6e20616c72656164792073657400000000000000604482015260640161058b565b6005805460009081526007602090815260408083209490945591548152600890915220805460ff19166001179055565b600660205281600052604060002081815481106114a157600080fd5b600091825260209091206004909102018054600182015460028301546003909301546001600160a01b039092169450925084565b606060035442101561150c575060408051808201909152601081526f15d05255125391d7d513d7d4d510549560821b602082015290565b60015460035461151c9190611f95565b42101561154a575060408051808201909152600c81526b2122aa2a24a723afa7a822a760a11b602082015290565b60025460015460035461155d9190611f95565b6115679190611f95565b42101561159b575060408051808201909152601281527115d05255125391d7d193d497d49154d5531560721b602082015290565b506040805180820190915260148152732922a0a22cafa327a92fa922a9a7a62aaa24a7a760611b602082015290565b600060015460035461055c9190611f95565b6000546001600160a01b031633146116065760405162461bcd60e51b815260040161058b90611fa8565b60006116106114d5565b6040516b2122aa2a24a723afa7a822a760a11b6020820152909150602c01604051602081830303815290604052805190602001208160405160200161165591906120d6565b60405160208183030381529060405280519060200120036116c35760405162461bcd60e51b815260206004820152602260248201527f43616e6e6f7420726573657420647572696e67206163746976652062657474696044820152616e6760f01b606482015260840161058b565b6116cf4261012c611f95565b600381905560055460015490917fb0b0c60f0267584d50a65485b5eff6babad43c5727703515fde33bb545b19114916117089082611f95565b6040805192835260208301919091520160405180910390a250565b600080606081805b6005546000908152600660205260409020548110156117f857856001600160a01b0316600660006005548152602001908152602001600020828154811061177457611774611fe1565b60009182526020909120600490910201546001600160a01b0316036117e6578161179d81611ff7565b92505060066000600554815260200190815260200160002081815481106117c6576117c6611fe1565b906000526020600020906004020160010154846117e39190611f95565b93505b806117f081611ff7565b91505061172b565b508067ffffffffffffffff81111561181257611812611fcb565b60405190808252806020026020018201604052801561183b578160200160208202803683370190505b5091506000805b6005546000908152600660205260409020548110801561186157508282105b1561192757866001600160a01b0316600660006005548152602001908152602001600020828154811061189657611896611fe1565b60009182526020909120600490910201546001600160a01b0316036119155760055460009081526006602052604090208054829081106118d8576118d8611fe1565b9060005260206000209060040201600201548483815181106118fc576118fc611fe1565b60209081029190910101528161191181611ff7565b9250505b8061191f81611ff7565b915050611842565b50909350509193909250565b6060600660006005548152602001908152602001600020805480602002602001604051908101604052809291908181526020016000905b828210156119c7576000848152602090819020604080516080810182526004860290920180546001600160a01b0316835260018082015484860152600282015492840192909252600301546060830152908352909201910161196a565b50505050905090565b6000806000670de0b6b3a7640000841015611a265760405162461bcd60e51b81526020600482015260166024820152754d696e696d756d206265742069732031204d4154494360501b604482015260640161058b565b508260005b600554600090815260066020526040902054811015611a98576005546000908152600660205260409020805482908110611a6757611a67611fe1565b90600052602060002090600402016001015482611a849190611f95565b915080611a9081611ff7565b915050611a2b565b50600060646004546064611aac9190612010565b611ab69084612023565b611ac09190612050565b90508460005b600554600090815260066020526040902054811015611b33576005546000908152600660205260409020805482908110611b0257611b02611fe1565b90600052602060002090600402016001015482611b1f9190611f95565b915080611b2b81611ff7565b915050611ac6565b5080611b3f8784612023565b611b499190612050565b945085611b568184612023565b611b609190612050565b935050509193909250565b6000806000806000600960009054906101000a90046001600160a01b03166001600160a01b031663feaf968c6040518163ffffffff1660e01b815260040160a060405180830381865afa158015611bc6573d6000803e3d6000fd5b505050506040513d601f19601f82011682018060405250810190611bea9190612152565b94509450509350935060008313611c335760405162461bcd60e51b815260206004820152600d60248201526c496e76616c696420707269636560981b604482015260640161058b565b60008211611c785760405162461bcd60e51b8152602060048201526012602482015271526f756e64206e6f7420636f6d706c65746560701b604482015260640161058b565b8369ffffffffffffffffffff168169ffffffffffffffffffff161015611cce5760405162461bcd60e51b815260206004820152600b60248201526a5374616c6520707269636560a81b604482015260640161058b565b610e10611cdb8342612010565b1115611d195760405162461bcd60e51b815260206004820152600d60248201526c141c9a58d9481d1bdbc81bdb19609a1b604482015260640161058b565b611d276305f5e100846121a2565b94505050505090565b600080600960009054906101000a90046001600160a01b03166001600160a01b031663feaf968c6040518163ffffffff1660e01b815260040160a060405180830381865afa158015611d86573d6000803e3d6000fd5b505050506040513d601f19601f82011682018060405250810190611daa9190612152565b5095945050505050565b6000818311611dcc57611dc78383612010565b611dd6565b611dd68284612010565b90505b92915050565b600061055c4261012c611f95565b600060208284031215611dff57600080fd5b5035919050565b60008060408385031215611e1957600080fd5b50508035926020909101359150565b60005b83811015611e43578181015183820152602001611e2b565b50506000910152565b6020815260008251806020840152611e6b816040850160208701611e28565b601f01601f19169190910160400192915050565b600060208284031215611e9157600080fd5b81356001600160a01b0381168114611ea857600080fd5b9392505050565b600081518084526020808501945080840160005b83811015611edf57815187529582019590820190600101611ec3565b509495945050505050565b838152826020820152606060408201526000611f096060830184611eaf565b95945050505050565b602080825282518282018190526000919060409081850190868401855b82811015611f7257815180516001600160a01b03168552868101518786015285810151868601526060908101519085015260809093019290850190600101611f2f565b5091979650505050505050565b634e487b7160e01b600052601160045260246000fd5b80820180821115611dd957611dd9611f7f565b6020808252600990820152682737ba1037bbb732b960b91b604082015260600190565b634e487b7160e01b600052604160045260246000fd5b634e487b7160e01b600052603260045260246000fd5b60006001820161200957612009611f7f565b5060010190565b81810381811115611dd957611dd9611f7f565b8082028115828204841417611dd957611dd9611f7f565b634e487b7160e01b600052601260045260246000fd5b60008261205f5761205f61203a565b500490565b600060808201868352602060808185015281875180845260a086019150828901935060005b818110156120ae5784516001600160a01b031683529383019391830191600101612089565b505084810360408601526120c28188611eaf565b935050505082606083015295945050505050565b600082516120e8818460208701611e28565b9190910192915050565b60208082526021908201527f43616e6e6f74206368616e676520647572696e672061637469766520726f756e6040820152601960fa1b606082015260800190565b805169ffffffffffffffffffff8116811461214d57600080fd5b919050565b600080600080600060a0868803121561216a57600080fd5b61217386612133565b945060208601519350604086015192506060860151915061219660808701612133565b90509295509295909350565b6000826121b1576121b161203a565b600160ff1b8214600019841416156121cb576121cb611f7f565b50059056fea2646970667358221220130d69db230b96ee9dd0d3eb1c7f2f269f007948016f18f96ae7a42f39a2c32264736f6c63430008140033",
  "linkReferences": {},
  "deployedLinkReferences": {}
}