{
  "_format": "hh-sol-artifact-1",
  "contractName": "BTCBettingPolygon",
  "sourceName": "contracts/BTCBettingPolygon.sol",
  "abi": [
    {
      "inputs": [
        {
          "internalType": "address",
          "name": "_priceFeed",
          "type": "address"
        },
        {
          "internalType": "uint256",
          "name": "_initialBettingPeriod",
          "type": "uint256"
        },
        {
          "internalType": "uint256",
          "name": "_initialResultDelay",
          "type": "uint256"
        }
      ],
      "stateMutability": "nonpayable",
      "type": "constructor"
    },
    {
      "anonymous": false,
      "inputs": [
        {
          "indexed": true,
          "internalType": "uint256",
          "name": "roundNumber",
          "type": "uint256"
        },
        {
          "indexed": true,
          "internalType": "address",
          "name": "player",
          "type": "address"
        },
        {
          "indexed": false,
          "internalType": "uint256",
          "name": "amount",
          "type": "uint256"
        },
        {
          "indexed": false,
          "internalType": "uint256",
          "name": "predictedPrice",
          "type": "uint256"
        }
      ],
      "name": "BetPlaced",
      "type": "event"
    },
    {
      "anonymous": false,
      "inputs": [
        {
          "indexed": false,
          "internalType": "uint256",
          "name": "oldPeriod",
          "type": "uint256"
        },
        {
          "indexed": false,
          "internalType": "uint256",
          "name": "newPeriod",
          "type": "uint256"
        }
      ],
      "name": "BettingPeriodUpdated",
      "type": "event"
    },
    {
      "anonymous": false,
      "inputs": [
        {
          "indexed": true,
          "internalType": "uint256",
          "name": "roundNumber",
          "type": "uint256"
        },
        {
          "indexed": false,
          "internalType": "uint256",
          "name": "startTime",
          "type": "uint256"
        },
        {
          "indexed": false,
          "internalType": "uint256",
          "name": "endTime",
          "type": "uint256"
        }
      ],
      "name": "NewRoundStarted",
      "type": "event"
    },
    {
      "anonymous": false,
      "inputs": [
        {
          "indexed": false,
          "internalType": "uint256",
          "name": "oldDelay",
          "type": "uint256"
        },
        {
          "indexed": false,
          "internalType": "uint256",
          "name": "newDelay",
          "type": "uint256"
        }
      ],
      "name": "ResultDelayUpdated",
      "type": "event"
    },
    {
      "anonymous": false,
      "inputs": [
        {
          "indexed": true,
          "internalType": "uint256",
          "name": "roundNumber",
          "type": "uint256"
        },
        {
          "indexed": false,
          "internalType": "uint256",
          "name": "actualPrice",
          "type": "uint256"
        },
        {
          "indexed": false,
          "internalType": "address[]",
          "name": "winners",
          "type": "address[]"
        },
        {
          "indexed": false,
          "internalType": "uint256[]",
          "name": "winningAmounts",
          "type": "uint256[]"
        },
        {
          "indexed": false,
          "internalType": "uint256",
          "name": "totalPrizePool",
          "type": "uint256"
        }
      ],
      "name": "RoundResolved",
      "type": "event"
    },
    {
      "inputs": [],
      "name": "MIN_BETTING_PERIOD",
      "outputs": [
        {
          "internalType": "uint256",
          "name": "",
          "type": "uint256"
        }
      ],
      "stateMutability": "view",
      "type": "function"
    },
    {
      "inputs": [],
      "name": "MIN_RESULT_DELAY",
      "outputs": [
        {
          "internalType": "uint256",
          "name": "",
          "type": "uint256"
        }
      ],
      "stateMutability": "view",
      "type": "function"
    },
    {
      "inputs": [],
      "name": "bettingPeriod",
      "outputs": [
        {
          "internalType": "uint256",
          "name": "",
          "type": "uint256"
        }
      ],
      "stateMutability": "view",
      "type": "function"
    },
    {
      "inputs": [
        {
          "internalType": "uint256",
          "name": "betAmount",
          "type": "uint256"
        }
      ],
      "name": "calculatePotentialWinnings",
      "outputs": [
        {
          "internalType": "uint256",
          "name": "minWinning",
          "type": "uint256"
        },
        {
          "internalType": "uint256",
          "name": "maxWinning",
          "type": "uint256"
        },
        {
          "internalType": "uint256",
          "name": "currentPool",
          "type": "uint256"
        }
      ],
      "stateMutability": "view",
      "type": "function"
    },
    {
      "inputs": [],
      "name": "currentRoundStart",
      "outputs": [
        {
          "internalType": "uint256",
          "name": "",
          "type": "uint256"
        }
      ],
      "stateMutability": "view",
      "type": "function"
    },
    {
      "inputs": [],
      "name": "determineWinnersAndStartNewRound",
      "outputs": [],
      "stateMutability": "nonpayable",
      "type": "function"
    },
    {
      "inputs": [],
      "name": "feePercentage",
      "outputs": [
        {
          "internalType": "uint256",
          "name": "",
          "type": "uint256"
        }
      ],
      "stateMutability": "view",
      "type": "function"
    },
    {
      "inputs": [],
      "name": "getBTCPrice",
      "outputs": [
        {
          "internalType": "uint256",
          "name": "",
          "type": "uint256"
        }
      ],
      "stateMutability": "view",
      "type": "function"
    },
    {
      "inputs": [],
      "name": "getCurrentRoundBets",
      "outputs": [
        {
          "components": [
            {
              "internalType": "address",
              "name": "player",
              "type": "address"
            },
            {
              "internalType": "uint256",
              "name": "amount",
              "type": "uint256"
            },
            {
              "internalType": "uint256",
              "name": "predictedPrice",
              "type": "uint256"
            },
            {
              "internalType": "uint256",
              "name": "round",
              "type": "uint256"
            }
          ],
          "internalType": "struct BTCBettingPolygon.Bet[]",
          "name": "",
          "type": "tuple[]"
        }
      ],
      "stateMutability": "view",
      "type": "function"
    },
    {
      "inputs": [],
      "name": "getCurrentRoundEndTime",
      "outputs": [
        {
          "internalType": "uint256",
          "name": "",
          "type": "uint256"
        }
      ],
      "stateMutability": "view",
      "type": "function"
    },
    {
      "inputs": [],
      "name": "getCurrentRoundInfo",
      "outputs": [
        {
          "internalType": "uint256",
          "name": "roundNum",
          "type": "uint256"
        },
        {
          "internalType": "uint256",
          "name": "startTime",
          "type": "uint256"
        },
        {
          "internalType": "uint256",
          "name": "endTime",
          "type": "uint256"
        },
        {
          "internalType": "uint256",
          "name": "resultTime",
          "type": "uint256"
        },
        {
          "internalType": "uint256",
          "name": "totalBets",
          "type": "uint256"
        },
        {
          "internalType": "uint256",
          "name": "totalPrizePool",
          "type": "uint256"
        },
        {
          "internalType": "bool",
          "name": "isAIPredictionSet",
          "type": "bool"
        }
      ],
      "stateMutability": "view",
      "type": "function"
    },
    {
      "inputs": [],
      "name": "getLastPriceUpdateTime",
      "outputs": [
        {
          "internalType": "uint256",
          "name": "",
          "type": "uint256"
        }
      ],
      "stateMutability": "view",
      "type": "function"
    },
    {
      "inputs": [
        {
          "internalType": "address",
          "name": "player",
          "type": "address"
        }
      ],
      "name": "getPlayerCurrentRoundStats",
      "outputs": [
        {
          "internalType": "uint256",
          "name": "totalBets",
          "type": "uint256"
        },
        {
          "internalType": "uint256",
          "name": "totalAmount",
          "type": "uint256"
        },
        {
          "internalType": "uint256[]",
          "name": "prices",
          "type": "uint256[]"
        }
      ],
      "stateMutability": "view",
      "type": "function"
    },
    {
      "inputs": [],
      "name": "getResultTime",
      "outputs": [
        {
          "internalType": "uint256",
          "name": "",
          "type": "uint256"
        }
      ],
      "stateMutability": "view",
      "type": "function"
    },
    {
      "inputs": [],
      "name": "getRoundStatus",
      "outputs": [
        {
          "internalType": "string",
          "name": "",
          "type": "string"
        }
      ],
      "stateMutability": "view",
      "type": "function"
    },
    {
      "inputs": [],
      "name": "getTimeUntilNextPhase",
      "outputs": [
        {
          "internalType": "uint256",
          "name": "",
          "type": "uint256"
        }
      ],
      "stateMutability": "view",
      "type": "function"
    },
    {
      "inputs": [],
      "name": "owner",
      "outputs": [
        {
          "internalType": "address",
          "name": "",
          "type": "address"
        }
      ],
      "stateMutability": "view",
      "type": "function"
    },
    {
      "inputs": [
        {
          "internalType": "uint256",
          "name": "_predictedPrice",
          "type": "uint256"
        }
      ],
      "name": "placeBet",
      "outputs": [],
      "stateMutability": "payable",
      "type": "function"
    },
    {
      "inputs": [],
      "name": "resetCurrentRound",
      "outputs": [],
      "stateMutability": "nonpayable",
      "type": "function"
    },
    {
      "inputs": [],
      "name": "resultDelay",
      "outputs": [
        {
          "internalType": "uint256",
          "name": "",
          "type": "uint256"
        }
      ],
      "stateMutability": "view",
      "type": "function"
    },
    {
      "inputs": [
        {
          "internalType": "uint256",
          "name": "",
          "type": "uint256"
        }
      ],
      "name": "roundAIPredictionSet",
      "outputs": [
        {
          "internalType": "bool",
          "name": "",
          "type": "bool"
        }
      ],
      "stateMutability": "view",
      "type": "function"
    },
    {
      "inputs": [
        {
          "internalType": "uint256",
          "name": "",
          "type": "uint256"
        }
      ],
      "name": "roundAIPredictions",
      "outputs": [
        {
          "internalType": "uint256",
          "name": "",
          "type": "uint256"
        }
      ],
      "stateMutability": "view",
      "type": "function"
    },
    {
      "inputs": [
        {
          "internalType": "uint256",
          "name": "",
          "type": "uint256"
        },
        {
          "internalType": "uint256",
          "name": "",
          "type": "uint256"
        }
      ],
      "name": "roundBets",
      "outputs": [
        {
          "internalType": "address",
          "name": "player",
          "type": "address"
        },
        {
          "internalType": "uint256",
          "name": "amount",
          "type": "uint256"
        },
        {
          "internalType": "uint256",
          "name": "predictedPrice",
          "type": "uint256"
        },
        {
          "internalType": "uint256",
          "name": "round",
          "type": "uint256"
        }
      ],
      "stateMutability": "view",
      "type": "function"
    },
    {
      "inputs": [],
      "name": "roundNumber",
      "outputs": [
        {
          "internalType": "uint256",
          "name": "",
          "type": "uint256"
        }
      ],
      "stateMutability": "view",
      "type": "function"
    },
    {
      "inputs": [
        {
          "internalType": "uint256",
          "name": "_aiPrediction",
          "type": "uint256"
        }
      ],
      "name": "setAIPrediction",
      "outputs": [],
      "stateMutability": "nonpayable",
      "type": "function"
    },
    {
      "inputs": [
        {
          "internalType": "uint256",
          "name": "_newBettingPeriod",
          "type": "uint256"
        }
      ],
      "name": "setBettingPeriod",
      "outputs": [],
      "stateMutability": "nonpayable",
      "type": "function"
    },
    {
      "inputs": [
        {
          "internalType": "uint256",
          "name": "_newResultDelay",
          "type": "uint256"
        }
      ],
      "name": "setResultDelay",
      "outputs": [],
      "stateMutability": "nonpayable",
      "type": "function"
    }
  ],
  "bytecode": "0x608060405262013560600155611c20600255604b6004553480156200002357600080fd5b506040516200246d3803806200246d83398101604081905262000046916200017e565b60008054336001600160a01b031991821617909155600980549091166001600160a01b03851617905561012c821015620000c75760405162461bcd60e51b815260206004820152601860248201527f42657474696e6720706572696f6420746f6f2073686f7274000000000000000060448201526064015b60405180910390fd5b603c8110156200011a5760405162461bcd60e51b815260206004820152601660248201527f526573756c742064656c617920746f6f2073686f7274000000000000000000006044820152606401620000be565b6001828155600282905542600381905560058290557fb0b0c60f0267584d50a65485b5eff6babad43c5727703515fde33bb545b19114906200015d8582620001c3565b6040805192835260208301919091520160405180910390a2505050620001eb565b6000806000606084860312156200019457600080fd5b83516001600160a01b0381168114620001ac57600080fd5b602085015160409095015190969495509392505050565b80820180821115620001e557634e487b7160e01b600052601160045260246000fd5b92915050565b61227280620001fb6000396000f3fe60806040526004361061019b5760003560e01c8063747dff42116100ec5780639d1d1c3a1161008a578063db95f8ae11610064578063db95f8ae146104c3578063dd22db80146104fe578063dd2a075114610513578063f489742e1461052857600080fd5b80639d1d1c3a1461045c578063a001ecdd1461048b578063c48fa21b146104a157600080fd5b806386b945b0116100c657806386b945b0146103d85780638aaaa197146103fa5780638da5cb5b1461040f5780639c960c211461044757600080fd5b8063747dff421461032257806375463ba11461036e57806381b792671461038e57600080fd5b80631be79cd5116101595780633707481b116101335780633707481b146102b45780634e2786fb146102e157806359e2275a146102f75780636100978e1461030c57600080fd5b80631be79cd514610268578063222d7e34146102885780632263b2d21461029e57600080fd5b80623312ce146101a057806303f12eaa146101c857806310df2004146101de57806310fe7c48146101f557806315d30b751461020857806318797f7614610228575b600080fd5b3480156101ac57600080fd5b506101b561053d565b6040519081526020015b60405180910390f35b3480156101d457600080fd5b506101b560015481565b3480156101ea57600080fd5b506101f3610561565b005b6101f3610203366004611e59565b610d65565b34801561021457600080fd5b506101f3610223366004611e59565b610f10565b34801561023457600080fd5b50610258610243366004611e59565b60086020526000908152604090205460ff1681565b60405190151581526020016101bf565b34801561027457600080fd5b506101f3610283366004611e59565b6110b4565b34801561029457600080fd5b506101b560035481565b3480156102aa57600080fd5b506101b561012c81565b3480156102c057600080fd5b506101b56102cf366004611e59565b60076020526000908152604090205481565b3480156102ed57600080fd5b506101b560055481565b34801561030357600080fd5b506101b561124d565b34801561031857600080fd5b506101b560025481565b34801561032e57600080fd5b506103376112e1565b604080519788526020880196909652948601939093526060850191909152608084015260a0830152151560c082015260e0016101bf565b34801561037a57600080fd5b506101f3610389366004611e59565b6113ae565b34801561039a57600080fd5b506103ae6103a9366004611e72565b6114ff565b604080516001600160a01b03909516855260208501939093529183015260608201526080016101bf565b3480156103e457600080fd5b506103ed61154f565b6040516101bf9190611eb8565b34801561040657600080fd5b506101b5611644565b34801561041b57600080fd5b5060005461042f906001600160a01b031681565b6040516001600160a01b0390911681526020016101bf565b34801561045357600080fd5b506101f3611656565b34801561046857600080fd5b5061047c610477366004611eeb565b611731565b6040516101bf93929190611f56565b34801561049757600080fd5b506101b560045481565b3480156104ad57600080fd5b506104b6611941565b6040516101bf9190611f7e565b3480156104cf57600080fd5b506104e36104de366004611e59565b6119de565b604080519384526020840192909252908201526060016101bf565b34801561050a57600080fd5b506101b5611b7b565b34801561051f57600080fd5b506101b5603c81565b34801561053457600080fd5b506101b5611d40565b60006002546001546003546105529190612001565b61055c9190612001565b905090565b6000546001600160a01b031633146105945760405162461bcd60e51b815260040161058b90612014565b60405180910390fd5b6002546001546003546105a79190612001565b6105b19190612001565b4210156105ec5760405162461bcd60e51b8152602060048201526009602482015268546f6f206561726c7960b81b604482015260640161058b565b60055460008181526006602052604090205461063b5760405162461bcd60e51b815260206004820152600e60248201526d139bc818995d1cc81c1b1858d95960921b604482015260640161058b565b60008181526008602052604090205460ff166106915760405162461bcd60e51b81526020600482015260156024820152741052481c1c99591a58dd1a5bdb881b9bdd081cd95d605a1b604482015260640161058b565b600061069b611b7b565b6000838152600660205260408120549192506000199167ffffffffffffffff8111156106c9576106c9612037565b6040519080825280602002602001820160405280156106f2578160200160208202803683370190505b506000858152600660205260408120549192509067ffffffffffffffff81111561071e5761071e612037565b604051908082528060200260200182016040528015610747578160200160208202803683370190505b50905060008060005b6000888152600660205260409020548110156107b75760008881526006602052604090208054829081106107865761078661204d565b906000526020600020906004020160010154826107a39190612001565b9150806107af81612063565b915050610750565b506000878152600760205260408120546107d19088611dc4565b905060005b60008981526006602052604090205481101561084a57600089815260066020526040812080546108299190849081106108115761081161204d565b9060005260206000209060040201600201548a611dc4565b905087811015610837578097505b508061084281612063565b9150506107d6565b5080861015610b425760006103e86108648461039d61207c565b61086e91906120a9565b905060005b60008a8152600660205260409020548110156109a75760008a815260066020526040812080546108c69190849081106108ae576108ae61204d565b9060005260206000209060040201600201548b611dc4565b90508881036109945760008b81526006602052604090208054839081106108ef576108ef61204d565b600091825260209091206004909102015488516001600160a01b03909116908990889081106109205761092061204d565b6001600160a01b0390921660209283029190910182015260008c81526006909152604090208054839081106109575761095761204d565b90600052602060002090600402016001015487878151811061097b5761097b61204d565b60209081029190910101528561099081612063565b9650505b508061099f81612063565b915050610873565b5083600103610a0957856000815181106109c3576109c361204d565b60200260200101516001600160a01b03166108fc829081150290604051600060405180830381858888f19350505050158015610a03573d6000803e3d6000fd5b50610b01565b6001841115610b01576000805b85811015610a5757868181518110610a3057610a3061204d565b602002602001015182610a439190612001565b915080610a4f81612063565b915050610a16565b5060005b85811015610afe57600082888381518110610a7857610a7861204d565b602002602001015185610a8b919061207c565b610a9591906120a9565b9050888281518110610aa957610aa961204d565b60200260200101516001600160a01b03166108fc829081150290604051600060405180830381858888f19350505050158015610ae9573d6000803e3d6000fd5b50508080610af690612063565b915050610a5b565b50505b600080546040516001600160a01b03909116914780156108fc02929091818181858888f19350505050158015610b3b573d6000803e3d6000fd5b5050610b7d565b600080546040516001600160a01b039091169184156108fc02918591818181858888f19350505050158015610b7b573d6000803e3d6000fd5b505b60008367ffffffffffffffff811115610b9857610b98612037565b604051908082528060200260200182016040528015610bc1578160200160208202803683370190505b50905060008467ffffffffffffffff811115610bdf57610bdf612037565b604051908082528060200260200182016040528015610c08578160200160208202803683370190505b50905060005b85811015610cab57878181518110610c2857610c2861204d565b6020026020010151838281518110610c4257610c4261204d565b60200260200101906001600160a01b031690816001600160a01b031681525050868181518110610c7457610c7461204d565b6020026020010151828281518110610c8e57610c8e61204d565b602090810291909101015280610ca381612063565b915050610c0e565b50897fb99647f8f256fcf37317843d8cfe2bc80176e42ef43dede63a7cd9cfffc7cfe68a848488604051610ce294939291906120bd565b60405180910390a2610cf2611def565b60035560058054906000610d0583612063565b91905055506005547fb0b0c60f0267584d50a65485b5eff6babad43c5727703515fde33bb545b19114600354600154600354610d419190612001565b6040805192835260208301919091520160405180910390a250505050505050505050565b600354421015610dab5760405162461bcd60e51b8152602060048201526011602482015270149bdd5b99081b9bdd081cdd185c9d1959607a1b604482015260640161058b565b600154600354610dbb9190612001565b4210610dfa5760405162461bcd60e51b815260206004820152600e60248201526d10995d1d1a5b99c818db1bdcd95960921b604482015260640161058b565b67016345785d8a0000341015610e4d5760405162461bcd60e51b81526020600482015260186024820152774d696e696d756d2062657420697320302e31204d4154494360401b604482015260640161058b565b600580546000818152600660209081526040808320815160808101835233808252348286018181528386018b815260608501998a52855460018082018855968a52988890209451600490990290940180546001600160a01b0319166001600160a01b0390991698909817885551938701939093559051600286015594516003909401939093559354845192835290820185905291927f1b8a9031cb9351278d70a994f81536e9e08c91162e64f92b2fe4766fb7a891b4910160405180910390a350565b6000546001600160a01b03163314610f3a5760405162461bcd60e51b815260040161058b90612014565b61012c811015610f7f5760405162461bcd60e51b815260206004820152601060248201526f14195c9a5bd9081d1bdbc81cda1bdc9d60821b604482015260640161058b565b6000610f8961154f565b6040516f15d05255125391d7d513d7d4d510549560821b60208201529091506030016040516020818303038152906040528051906020012081604051602001610fd2919061212f565b6040516020818303038152906040528051906020012014806110515750604051732922a0a22cafa327a92fa922a9a7a62aaa24a7a760611b60208201526034016040516020818303038152906040528051906020012081604051602001611039919061212f565b60405160208183030381529060405280519060200120145b61106d5760405162461bcd60e51b815260040161058b9061214b565b600180549083905560408051828152602081018590527f7579170795423bf41718e3b63add0930ca0da930f2097ecccf3385bc37927c0091015b60405180910390a1505050565b6000546001600160a01b031633146110de5760405162461bcd60e51b815260040161058b90612014565b603c8110156111215760405162461bcd60e51b815260206004820152600f60248201526e11195b185e481d1bdbc81cda1bdc9d608a1b604482015260640161058b565b600061112b61154f565b6040516f15d05255125391d7d513d7d4d510549560821b60208201529091506030016040516020818303038152906040528051906020012081604051602001611174919061212f565b6040516020818303038152906040528051906020012014806111f35750604051732922a0a22cafa327a92fa922a9a7a62aaa24a7a760611b602082015260340160405160208183030381529060405280519060200120816040516020016111db919061212f565b60405160208183030381529060405280519060200120145b61120f5760405162461bcd60e51b815260040161058b9061214b565b600280549083905560408051828152602081018590527f73ae29d752e307bb875642e4806f589b96a21942e4125e3ae98ed7d81a1ce22791016110a7565b6000600354421015611267574260035461055c919061218c565b6001546003546112779190612001565b421015611299574260015460035461128f9190612001565b61055c919061218c565b6002546001546003546112ac9190612001565b6112b69190612001565b4210156112db57426002546001546003546112d19190612001565b61128f9190612001565b50600090565b6005546003546000808080806112f5611644565b94506112ff61053d565b6005546000908152600660205260408120549195509093509150815b6005546000908152600660205260409020548110156113885760055460009081526006602052604090208054829081106113575761135761204d565b906000526020600020906004020160010154836113749190612001565b92508061138081612063565b91505061131b565b505060055460009081526008602052604090205495969495939492939192909160ff1690565b6000546001600160a01b031633146113d85760405162461bcd60e51b815260040161058b90612014565b60035442101561141e5760405162461bcd60e51b8152602060048201526011602482015270149bdd5b99081b9bdd081cdd185c9d1959607a1b604482015260640161058b565b60015460035461142e9190612001565b421061146d5760405162461bcd60e51b815260206004820152600e60248201526d10995d1d1a5b99c818db1bdcd95960921b604482015260640161058b565b60055460009081526008602052604090205460ff16156114cf5760405162461bcd60e51b815260206004820152601960248201527f41492070726564696374696f6e20616c72656164792073657400000000000000604482015260640161058b565b6005805460009081526007602090815260408083209490945591548152600890915220805460ff19166001179055565b6006602052816000526040600020818154811061151b57600080fd5b600091825260209091206004909102018054600182015460028301546003909301546001600160a01b039092169450925084565b6060600354421015611586575060408051808201909152601081526f15d05255125391d7d513d7d4d510549560821b602082015290565b6001546003546115969190612001565b4210156115c4575060408051808201909152600c81526b2122aa2a24a723afa7a822a760a11b602082015290565b6002546001546003546115d79190612001565b6115e19190612001565b421015611615575060408051808201909152601281527115d05255125391d7d193d497d49154d5531560721b602082015290565b506040805180820190915260148152732922a0a22cafa327a92fa922a9a7a62aaa24a7a760611b602082015290565b600060015460035461055c9190612001565b6000546001600160a01b031633146116805760405162461bcd60e51b815260040161058b90612014565b611688611def565b6003556005805490600061169b83612063565b909155505060055460009081526006602052604081206116ba91611dfd565b600580546000908152600860209081526040808320805460ff19169055835483526007909152812055546003546001547fb0b0c60f0267584d50a65485b5eff6babad43c5727703515fde33bb545b1911491906117179082612001565b6040805192835260208301919091520160405180910390a2565b600080606081805b60055460009081526006602052604090205481101561180657856001600160a01b031660066000600554815260200190815260200160002082815481106117825761178261204d565b60009182526020909120600490910201546001600160a01b0316036117f457816117ab81612063565b92505060066000600554815260200190815260200160002081815481106117d4576117d461204d565b906000526020600020906004020160010154846117f19190612001565b93505b806117fe81612063565b915050611739565b508067ffffffffffffffff81111561182057611820612037565b604051908082528060200260200182016040528015611849578160200160208202803683370190505b5091506000805b6005546000908152600660205260409020548110801561186f57508282105b1561193557866001600160a01b031660066000600554815260200190815260200160002082815481106118a4576118a461204d565b60009182526020909120600490910201546001600160a01b0316036119235760055460009081526006602052604090208054829081106118e6576118e661204d565b90600052602060002090600402016002015484838151811061190a5761190a61204d565b60209081029190910101528161191f81612063565b9250505b8061192d81612063565b915050611850565b50909350509193909250565b6060600660006005548152602001908152602001600020805480602002602001604051908101604052809291908181526020016000905b828210156119d5576000848152602090819020604080516080810182526004860290920180546001600160a01b03168352600180820154848601526002820154928401929092526003015460608301529083529092019101611978565b50505050905090565b600080600067016345785d8a0000841015611a365760405162461bcd60e51b81526020600482015260186024820152774d696e696d756d2062657420697320302e31204d4154494360401b604482015260640161058b565b508260005b600554600090815260066020526040902054811015611aa8576005546000908152600660205260409020805482908110611a7757611a7761204d565b90600052602060002090600402016001015482611a949190612001565b915080611aa081612063565b915050611a3b565b50600060646004546064611abc919061218c565b611ac6908461207c565b611ad091906120a9565b90508460005b600554600090815260066020526040902054811015611b43576005546000908152600660205260409020805482908110611b1257611b1261204d565b90600052602060002090600402016001015482611b2f9190612001565b915080611b3b81612063565b915050611ad6565b5080611b4f878461207c565b611b5991906120a9565b945085611b66818461207c565b611b7091906120a9565b935050509193909250565b6000806000806000600960009054906101000a90046001600160a01b03166001600160a01b031663feaf968c6040518163ffffffff1660e01b815260040160a060405180830381865afa158015611bd6573d6000803e3d6000fd5b505050506040513d601f19601f82011682018060405250810190611bfa91906121be565b94509450509350935060008313611c435760405162461bcd60e51b815260206004820152600d60248201526c496e76616c696420707269636560981b604482015260640161058b565b60008211611c885760405162461bcd60e51b8152602060048201526012602482015271526f756e64206e6f7420636f6d706c65746560701b604482015260640161058b565b8369ffffffffffffffffffff168169ffffffffffffffffffff161015611cde5760405162461bcd60e51b815260206004820152600b60248201526a5374616c6520707269636560a81b604482015260640161058b565b610e10611ceb834261218c565b1115611d295760405162461bcd60e51b815260206004820152600d60248201526c141c9a58d9481d1bdbc81bdb19609a1b604482015260640161058b565b611d376305f5e1008461220e565b94505050505090565b600080600960009054906101000a90046001600160a01b03166001600160a01b031663feaf968c6040518163ffffffff1660e01b815260040160a060405180830381865afa158015611d96573d6000803e3d6000fd5b505050506040513d601f19601f82011682018060405250810190611dba91906121be565b5095945050505050565b6000818311611ddc57611dd7838361218c565b611de6565b611de6828461218c565b90505b92915050565b600061055c4261012c612001565b5080546000825560040290600052602060002090810190611e1e9190611e21565b50565b5b80821115611e555780546001600160a01b0319168155600060018201819055600282018190556003820155600401611e22565b5090565b600060208284031215611e6b57600080fd5b5035919050565b60008060408385031215611e8557600080fd5b50508035926020909101359150565b60005b83811015611eaf578181015183820152602001611e97565b50506000910152565b6020815260008251806020840152611ed7816040850160208701611e94565b601f01601f19169190910160400192915050565b600060208284031215611efd57600080fd5b81356001600160a01b0381168114611f1457600080fd5b9392505050565b600081518084526020808501945080840160005b83811015611f4b57815187529582019590820190600101611f2f565b509495945050505050565b838152826020820152606060408201526000611f756060830184611f1b565b95945050505050565b602080825282518282018190526000919060409081850190868401855b82811015611fde57815180516001600160a01b03168552868101518786015285810151868601526060908101519085015260809093019290850190600101611f9b565b5091979650505050505050565b634e487b7160e01b600052601160045260246000fd5b80820180821115611de957611de9611feb565b6020808252600990820152682737ba1037bbb732b960b91b604082015260600190565b634e487b7160e01b600052604160045260246000fd5b634e487b7160e01b600052603260045260246000fd5b60006001820161207557612075611feb565b5060010190565b8082028115828204841417611de957611de9611feb565b634e487b7160e01b600052601260045260246000fd5b6000826120b8576120b8612093565b500490565b600060808201868352602060808185015281875180845260a086019150828901935060005b818110156121075784516001600160a01b0316835293830193918301916001016120e2565b5050848103604086015261211b8188611f1b565b935050505082606083015295945050505050565b60008251612141818460208701611e94565b9190910192915050565b60208082526021908201527f43616e6e6f74206368616e676520647572696e672061637469766520726f756e6040820152601960fa1b606082015260800190565b81810381811115611de957611de9611feb565b805169ffffffffffffffffffff811681146121b957600080fd5b919050565b600080600080600060a086880312156121d657600080fd5b6121df8661219f565b94506020860151935060408601519250606086015191506122026080870161219f565b90509295509295909350565b60008261221d5761221d612093565b600160ff1b82146000198414161561223757612237611feb565b50059056fea2646970667358221220b3792afe7a545b0cc2bcc3393dda04a19f2f36986a227fa2430db42e577aaadb64736f6c63430008140033",
  "linkReferences": {},
  "deployedLinkReferences": {}
}